:1000000009C016C015C06DC013C012C011C010C009
:100010000FC00EC011241FBECFE9CDBF10E0A0E677
:10002000B0E001C01D92A836B107E1F791D0D1C070
:10003000E7CFEF92FF920F931F93F894E090600048
:10004000F0906100009162001091630082B7789493
:1000500090E063E470E084D06AE070E093D09B01AC
:10006000442737FD4095542F2E0D3F1D401F511F33
:10007000B901CA011F910F91FF90EF9008951FBC25
:1000800082E083BF89BF0895EF92FF920F931F9381
:10009000D0DF9B01AC018091640090916500A0913C
:1000A0006600B091670079018A01E81AF90A0A0B23
:1000B0001B0BD801C70180549244AF40B04060F0A0
:1000C00088B391E0892788BB209364003093650052
:1000D00040936600509367001F910F91FF90EF903F
:1000E00008951F920F920FB60F9211242F933F93F2
:1000F0004F935F936F937F938F939F93AF93BF9330
:10010000EF93FF938091600090916100A091620055
:10011000B09163008555994FAF4FBF4F80936000FA
:1001200090936100A0936200B0936300ADDFFF91F4
:10013000EF91BF91AF919F918F917F916F915F915F
:100140004F913F912F910F900FBE0F901F901895D8
:10015000B89AC09A1FBC82E083BF89BF7894FFCF52
:100160005527002480FF02C0060E571F660F771F19
:100170006115710521F096958795009799F7952F50
:10018000802D089597FB092E07260AD077FD04D00D
:100190000CD006D000201AF4709561957F4F089519
:1001A000F6F7909581959F4F0895AA1BBB1B51E1CF
:1001B00007C0AA1FBB1FA617B70710F0A61BB70BD7
:1001C000881F991F5A95A9F780959095BC01CD017C
:0601D0000895F894FFCF32
:00000001FF
