:1000000009C016C071C04AC013C012C011C010C0D0
:100010000FC00EC011241FBECFE9CDBF10E0A0E677
:10002000B0E001C01D92A436B107E1F785D0C4C08D
:10003000E7CF87B38E6387BBB898C09A8BB78062CF
:100040008BBFA89A08951FBC82E083BF89BF089523
:10005000EF92FF920F931F93F894E0906000F0905E
:100060006100009162001091630082B7789490E083
:1000700063E470E068D06AE070E077D09B014427C9
:1000800037FD4095542F2E0D3F1D401F511FB901C4
:10009000CA011F910F91FF90EF9008951F920F9248
:1000A0000FB60F9211248F939F93AF93BF938091BC
:1000B000600090916100A0916200B091630085554D
:1000C000994FAF4FBF4F8093600090936100A09312
:1000D0006200B0936300BF91AF919F918F910F9099
:1000E0000FBE0F901F9018951F920F920FB60F9290
:1000F00011242F933F934F935F936F937F938F932D
:100100009F93AF93BF93EF93FF93A2DFB09B02C087
:10011000C19A01C0C198FF91EF91BF91AF919F919A
:100120008F917F916F915F914F913F912F910F90A0
:100130000FBE0F901F9018957CDF1FBC82E083BF1D
:1001400089BF7894FFCF5527002480FF02C0060E98
:10015000571F660F771F6115710521F096958795DA
:10016000009799F7952F802D089597FB092E072664
:100170000AD077FD04D00CD006D000201AF4709578
:1001800061957F4F0895F6F7909581959F4F08955B
:10019000AA1BBB1B51E107C0AA1FBB1FA617B707AD
:1001A00010F0A61BB70B881F991F5A95A9F78095C9
:0C01B0009095BC01CD010895F894FFCF9C
:00000001FF
