:1000000009C021C020C097C01EC01DC01CC01BC09D
:100010001AC019C011241FBECFE9CDBF10E0A0E661
:10002000B0E0E8ECF2E002C005900D92AA36B1070C
:10003000D9F710E0AAE6B0E001C01D92AA37B107D7
:10004000E1F756D03FC1DCCF87B3836087BB08950B
:100050001FBC82E083BF89BF0895C19A0895C198EB
:10006000089588B392E0892788BB0895AC0120E009
:100070006EE170E011C0C19A88EB9BE0FB01319703
:10008000F1F70197D9F7C19888EB9BE0FB01319715
:10009000F1F70197D9F72F5F822F90E0841795072A
:1000A00054F30895EF92FF920F931F93F894E0900A
:1000B0006A00F0906B0000916C0010916D0082B7A7
:1000C000789490E063E470E0C4D06AE070E0D3D04C
:1000D0009B01442737FD4095542F2E0D3F1D401F97
:1000E000511FB901CA011F910F91FF90EF90089520
:1000F00087B3836087BB1FBC82E083BF89BF7894CE
:10010000FFCFAC01DC010D900020E9F71197A81B8F
:10011000B90B90E020E030E009C0990FFA01E20F3E
:10012000F31F80818053982B2F5F3F4F2A173B0787
:10013000A0F3892F08951F920F920FB60F921124EA
:10014000EF92FF920F931F932F933F934F935F93E1
:100150006F937F938F939F93AF93BF93EF93FF938F
:1001600080916A0090916B00A0916C00B0916D003D
:100170008555994FAF4FBF4F80936A0090936B00A6
:10018000A0936C00B0936D008DDF9B01AC0180915A
:10019000760090917700A0917800B0917900790174
:1001A0008A01E81AF90A0A0B1B0BD801C701805211
:1001B000914AA740B040F8F088B391E0892788BB06
:1001C0008091720090917300A0917400B0917500BD
:1001D0000196A11DB11D8093720090937300A093AE
:1001E0007400B093750020937600309377004093AD
:1001F0007800509379008091720090917300A091E3
:100200007400B09175000897A105B10569F480E606
:1002100090E077DF90E02ADF109272001092730076
:100220001092740010927500FF91EF91BF91AF9101
:100230009F918F917F916F915F914F913F912F91FE
:100240001F910F91FF90EF900F900FBE0F901F9096
:1002500018955527002480FF02C0060E571F660F11
:10026000771F6115710521F096958795009799F78D
:10027000952F802D089597FB092E07260AD077FD2C
:1002800004D00CD006D000201AF4709561957F4FF1
:100290000895F6F7909581959F4F0895AA1BBB1B73
:1002A00051E107C0AA1FBB1FA617B70710F0A61B76
:1002B000B70B881F991F5A95A9F780959095BC0197
:0802C000CD010895F894FFCF71
:0A02C80030303030303031310000AA
:00000001FF
