:1000000009C021C020C01FC01EC01DC01CC01BC015
:100010001AC019C011241FBECFE9CDBF10E0A0E661
:10002000B0E0E4E4F1E002C005900D92AA36B10719
:10003000D9F710E0AAE6B0E001C01D92A237B107DF
:10004000E1F766D07DC0DCCF87B3876087BBC09AFD
:100050000895AC0120E06EE170E011C0C19A88EB18
:100060009BE0FB013197F1F70197D9F7C19888EB35
:100070009BE0FB013197F1F70197D9F72F5F822FB2
:1000800090E08417950754F3089540E06EE170E026
:1000900010C0E03311F4C09803C0E13309F4C09AF2
:1000A00028EB3BE0FB013197F1F721503040D1F7CD
:1000B0004F5FFC01E40FF11DE081EE2351F708953D
:1000C000C09888EB9BE02EE130E0F9013197F1F721
:1000D0000197D9F7C09A0895C29A0895AC01DC013E
:1000E0000D900020E9F71197A81BB90B90E020E0D4
:1000F00030E009C0990FFA01E20FF31F80818053AD
:10010000982B2F5F3F4F2A173B07A0F3892F0895A5
:1001100087B3876087BBC09A80E690E0DFDF90E01E
:1001200098DF80E197E22EE130E0F9013197F1F7B5
:100130000197D9F7C5DF80E690E0A7DFC29AFFCF2D
:04014000F894FFCF61
:0A014400303030303031303100002F
:00000001FF
