:1000000009C016C0CAC014C013C012C011C010C0AD
:100010000FC00EC011241FBECFE9CDBF10E0A0E677
:10002000B0E001C01D92A336B107E1F7DCD0DDC01E
:10003000E7CF8EEF87BB18BAA89A8BB780628BBFC9
:1000400078940895382F662361F428B381E090E016
:1000500002C0880F991F3A95E2F78095822388BBEA
:10006000089528B381E090E002C0880F991F3A9567
:10007000E2F7982F282B28BB6F3F59F020E335E794
:10008000F9013197F1F76150D9F788B3909598232A
:1000900098BB089580916200882399F08091620056
:1000A000863078F438B32091620081E090E002C09D
:1000B000880F991F2A95E2F78095832388BB1092B9
:1000C0006200089586EA8A95F1F740E020E030E08A
:1000D000E9EFF0E061E070E0CF010197F1F7B09B4C
:1000E00008C0CB01022E02C0880F991F0A94E2F7C4
:1000F000482B2F5F3F4F2830310571F789EF90E093
:100100000197F1F7842F089510926000109261001A
:100110001092620008958BB78F7D8BBF88E293E2C7
:100120000197F1F78BB780628BBF0895682F80919C
:1001300060008F5F8093600080916000813091F457
:10014000623019F48093610008958BB78F7D8BBF67
:1001500088E293E20197F1F78BB780628BBF109230
:100160006000089580916000823039F480916100D0
:10017000882319F0609362000895809160008330B5
:1001800059F480916100882339F0809162005ADF30
:10019000109260001092610008951F920F920FB6A6
:1001A0000F9211242F933F934F935F936F937F93FD
:1001B0008F939F93AF93BF93EF93FF93B09902C038
:1001C00081DFB4DFFF91EF91BF91AF919F918F914C
:1001D0007F916F915F914F913F912F910F900FBE43
:0E01E0000F901F90189525DFFFCFF894FFCFEA
:00000001FF
