:1000000009C019C018C017C016C015C014C013C04D
:1000100012C011C011241FBECFE9CDBF10E0A0E671
:10002000B0E0E8E8F3E002C005900D92A836B10711
:10003000D9F74BD0A7C1E4CFB89AC09A0895C09819
:10004000E9EFF0E03197F1F720E030E0482F50E0A1
:1000500069EF70E0CA01022E02C0959587950A9457
:10006000E2F780FF02C0C09A01C0C098CB0101979F
:10007000F1F72F5F3F4F2830310561F7C09A89EFC4
:1000800090E00197F1F708950F931F938C01FC0105
:100090008081D5DFF8018181D2DFF8018281CFDF55
:1000A0001F910F910895FF920F931F93F82E062F23
:1000B000BBD010E00F1911090F5F1F4FB80143D0DB
:1000C0008F0D1F910F91FF900895CF92DF92EF92C5
:1000D000FF921F93DF93CF9300D00F92CDB7DEB77F
:1000E000DE011196E0E6F0E083E001900D92815090
:1000F000E1F7B89AC09A80E090E0A5D022B730E04E
:100100008227932795D011E06E010894C11CD11C61
:100110008EE1E82EF12C01C012E0198381E065E048
:10012000C2DF8A8380E062E3BEDF8B83C601ACDF7F
:1001300080E197E2F7013197F1F70197D9F7113094
:1001400059F311E0EACF97FB092E07260AD077FD75
:1001500004D00CD006D000201AF4709561957F4F22
:100160000895F6F7909581959F4F0895AA1BBB1BA4
:1001700051E107C0AA1FBB1FA617B70710F0A61BA7
:10018000B70B881F991F5A95A9F780959095BC01C8
:10019000CD010895A0E0B0E0EFECF0E0A2C0EC01EA
:1001A000A880B980CA80DB80A114B104C104D10445
:1001B00041F484E2A82E89EDB82E8BE5C82E87E0A5
:1001C000D82EC601B5012DE133EF41E050E066D0F5
:1001D00027EA31E440E050E048D07B018C01C601C1
:1001E000B5012DE133EF41E050E058D0CA01B9012B
:1001F0002CEE34EF4FEF5FEF38D06E0D7F1D801F78
:10020000911F97FF04C06150704080409048688300
:1002100079838A839B839B013F77C901CDB7DEB782
:10022000EAE07BC0B7DF089583E690E0B3DF08958E
:10023000A0E0B0E08093630090936400A093650019
:10024000B09366000895A8E142E002C0A82F862F6F
:10025000E82FE199FECF1FBA05C0EEBBE09AE39507
:100260000DB20D924150C8F70895FF27EE27BB2726
:10027000AA2760FF04C0A20FB31FE41FF51F220FBF
:10028000331F441F551F969587957795679589F776
:100290000097760771F7CF01BD01089597FB092EEE
:1002A00005260ED057FD04D04BD00AD0001C38F4E0
:1002B00050954095309521953F4F4F4F5F4F089592
:1002C000F6F790958095709561957F4F8F4F9F4F72
:1002D00008952F923F924F925F926F927F928F92EA
:1002E0009F92AF92BF92CF92DF92EF92FF920F93C5
:1002F0001F93CF93DF93CDB7DEB7CA1BDB0B0FB6CF
:10030000F894DEBF0FBECDBF09942A88398848888B
:100310005F846E847D848C849B84AA84B984C88421
:10032000DF80EE80FD800C811B81AA81B981CE0F18
:10033000D11D0FB6F894DEBF0FBECDBFED010895FD
:10034000A1E21A2EAA1BBB1BFD010DC0AA1FBB1FD9
:10035000EE1FFF1FA217B307E407F50720F0A21B4B
:10036000B30BE40BF50B661F771F881F991F1A94B8
:1003700069F760957095809590959B01AC01BD01E2
:08038000CF010895F894FFCFAE
:08038800010505010000000061
:00000001FF
