:1000000009C021C020C01FC11EC01DC01CC01BC014
:100010001AC019C011241FBECFE9CDBF10E0A0E661
:10002000B0E0E8EDF3E002C005900D92A436B10710
:10003000D9F710E0A4E6B0E001C01D92AF36B107D9
:10004000E1F77CD1C7C1DCCF1FBC82E083BF89BF91
:100050000895EF92FF920F931F93F894E09064003D
:10006000F0906500009166001091670082B7789467
:1000700090E063E470E075D16AE070E084D19B01A8
:10008000442737FD4095542F2E0D3F1D401F511F13
:10009000B901CA011F910F91FF90EF900895EF925F
:1000A000FF920F931F939B01AC0180916800909188
:1000B0006900A0916A00B0916B0079018A01E81A89
:1000C000F90A0A0B1B0BD801C70180589448AE41AE
:1000D000B04050F010926C0020936800309369009B
:1000E00040936A0050936B001F910F91FF90EF9027
:1000F0000895EF92FF920F931F939B01AC018091A3
:10010000680090916900A0916A00B0916B0079013C
:100110008A01E81AF90A0A0B1B0BD801C70180599A
:10012000904DA340B04060F0C09881E080936C0097
:10013000209368003093690040936A0050936B00ED
:100140001F910F91FF90EF9008950F931F93AB01B4
:10015000BC018091680090916900A0916A00B09103
:100160006B008A019B01081B190B2A0B3B0BD90161
:10017000C8018059904DA340B04050F180916D006E
:100180008830C8F4E0916E0020916D00F0E0E05AF4
:10019000FF4F808190E002C0959587952A95E2F700
:1001A00080FF02C0C09A01C0C09880916D008F5F2F
:1001B00080936D0005C010926D0082E080936C000A
:1001C000409368005093690060936A0070936B00DD
:1001D0001F910F910895EF92FF920F931F939B0130
:1001E000AC018091680090916900A0916A00B09183
:1001F0006B0079018A01E81AF90A0A0B1B0BD80176
:10020000C7018059904DA340B040C0F0C09A809182
:100210006E00823040F480916E008F5F80936E009C
:1002200010926C0003C083E080936C002093680000
:100230003093690040936A0050936B001F910F91B7
:10024000FF90EF9008951F920F920FB60F92112416
:10025000EF92FF920F931F932F933F934F935F93D0
:100260006F937F938F939F93AF93BF93EF93FF937E
:100270008091640090916500A0916600B091670044
:100280008555994FAF4FBF4F8093640090936500A1
:10029000A0936600B09367002091640030916500E0
:1002A000409166005091670080916C00813051F15F
:1002B000813020F1823051F18F3F59F580916800F3
:1002C00090916900A0916A00B0916B0079018A0158
:1002D000E81AF90A0A0B1B0BD801C7018058944889
:1002E000AE41B040B0F010926C00209368003093A3
:1002F000690040936A0050936B000BC0CA01B901BA
:10030000F8DE07C0CA01B90120DF03C0CA01B90184
:1003100062DFFF91EF91BF91AF919F918F917F919C
:100320006F915F914F913F912F911F910F91FF908E
:10033000EF900F900FBE0F901F901895B89AC09A2B
:100340001FBC82E083BF89BF78941092680010922E
:10035000690010926A0010926B008FEF80936C001E
:10036000FFCF5527002480FF02C0060E571F660FDF
:10037000771F6115710521F096958795009799F77C
:10038000952F802D089597FB092E07260AD077FD1B
:1003900004D00CD006D000201AF4709561957F4FE0
:1003A0000895F6F7909581959F4F0895AA1BBB1B62
:1003B00051E107C0AA1FBB1FA617B70710F0A61B65
:1003C000B70B881F991F5A95A9F780959095BC0186
:0803D000CD010895F894FFCF60
:0403D8000205030314
:00000001FF
