:1000000009C016C05AC015C013C012C0BDC010C070
:100010000FC00EC011241FBECFE9CDBF10E0A0E677
:10002000B0E001C01D92AB36B107E1F711D14BC171
:10003000E7CF1F920F920FB60F9211248F939F93C9
:10004000AF93BF938091600090916100A091620096
:10005000B091630080509F4FAF4FBF4F80936000BF
:1000600090936100A0936200B0936300BF91AF9141
:100070009F918F910F900FBE0F901F901895F8943D
:1000800060916000709161008091620090916300C6
:1000900022B77894620F711D811D911D23E0660FB8
:1000A000771F881F991F2A95D1F72CE030E040E098
:1000B00050E0E7D0CA01B90108951F920F920FB620
:1000C0000F9211242F933F934F935F936F937F93DE
:1000D0008F939F93AF93BF93EF93FF93B09914C007
:1000E00080916400882381F481E080936400109201
:1000F000650010926600C3DF60936700709368002C
:100100008093690090936A00FF91EF91BF91AF9146
:100110009F918F917F916F915F914F913F912F911F
:100120000F900FBE0F901F90189541E050E0682F80
:1001300070E0E1E0F0E041505040CB01042E02C0FD
:10014000959587950A94E2F74F5F5F4F80FF0BC04C
:1001500028B3CF01042E02C0880F991F0A94E2F73A
:10016000282B28BB0BC028B3CF01042E02C0880F58
:10017000991F0A94E2F78095822388BB4F5F5F4FF7
:1001800046305105C1F608951F920F920FB60F9297
:1001900011242F933F934F935F936F937F938F938C
:1001A0009F93AF93BF93EF93FF9380916400882355
:1001B00069F180916600883020F5B09B0DC0809178
:1001C00065009091660021E030E002C0220F331FED
:1001D0009A95E2F7822B0DC0309165002091660060
:1001E00081E090E002C0880F991F2A95E2F7809580
:1001F000832380936500809166008F5F8093660003
:1002000005C010926400809165008FDFFF91EF912F
:10021000BF91AF919F918F917F916F915F914F911E
:100220003F912F910F900FBE0F901F90189582E075
:100230008FBD83E083BF85E786BF89B7846089BFB0
:1002400008951FBC82E083BF89B7826089BF08958B
:1002500087B38E6387BBB898C09A8BB780628BBF19
:10026000A89A1FBC92E093BF89B7826089BF9FBDE7
:1002700083E083BF85E786BF89B7846089BF7894B0
:10028000FFCFA1E21A2EAA1BBB1BFD010DC0AA1FA6
:10029000BB1FEE1FFF1FA217B307E407F50720F0EF
:1002A000A21BB30BE40BF50B661F771F881F991F6A
:1002B0001A9469F760957095809590959B01AC01B3
:0A02C000BD01CF010895F894FFCFAF
:00000001FF
