:1000000009C016C067C040C013C012C011C010C0E4
:100010000FC00EC011241FBECFE9CDBF10E0A0E677
:10002000B0E001C01D92AE36B107E1F72AD172C12E
:10003000E7CF1FBC82E083BF89BF0895EF92FF9294
:100040000F931F93F894E0906000F090610000918E
:1000500062001091630082B7789490E063E470E0EE
:1000600020D16AE070E02FD19B01442737FD4095F5
:10007000542F2E0D3F1D401F511FB901CA011F9162
:100080000F91FF90EF9008951F920F920FB60F926D
:1000900011248F939F93AF93BF93809160009091B1
:1000A0006100A0916200B09163008555994FAF4FF8
:1000B000BF4F8093600090936100A0936200B09363
:1000C0006300BF91AF919F918F910F900FBE0F90E2
:1000D0001F9018951F920F920FB60F9211242F9315
:1000E0003F934F935F936F937F938F939F93AF93C0
:1000F000BF93EF93FF93A2DF9B01AC018091690056
:100100008823B9F4B09915C081E080936900C59A3D
:10011000285B37414E4F5F4F20936400309365005A
:1001200040936600509367001092680010926D0033
:1001300055C080916900882309F450C080916800FF
:100140008830B8F58091640090916500A0916600B8
:10015000B0916700281739074A075B0708F43EC0CB
:1001600086B320916800817090E002C0880F991FCB
:100170002A95E2F720916D00282B20936D00809145
:1001800068008F5F809368008091640090916500A3
:10019000A0916600B091670080579F42AC4FBF4F5F
:1001A0008093640090936500A0936600B09367000D
:1001B00015C080916800883089F4B09B09C0809197
:1001C0006D0080936A0081E080936B00C59804C045
:1001D00010926A0010926B0010926900FF91EF91EB
:1001E000BF91AF919F918F917F916F915F914F914F
:1001F0003F912F910F900FBE0F901F9018958091F7
:100200006B00882309F43CC090916A0080916C00D7
:100210009817A1F180916A0080936C0020E040E380
:1002200055E709C0C59ACA010197F1F7C598CA01F7
:100230000197F1F72F5F80916A00281798F388B330
:10024000817E88BB80916A008823C1F040E050E045
:1002500061E070E00AC028B3CB01042E02C0880F11
:10026000991F0A94E2F7282B28BB80916A0048174F
:1002700028F44F5F5F4F4530510569F710926B00CE
:10028000089587B38E6387BBB898C09A8BB7806296
:100290008BBFA89A1FBC82E083BF89BF7894AFDF71
:1002A000FECF5527002480FF02C0060E571F660FA1
:1002B000771F6115710521F096958795009799F73D
:1002C000952F802D089597FB092E07260AD077FDDC
:1002D00004D00CD006D000201AF4709561957F4FA1
:1002E0000895F6F7909581959F4F0895AA1BBB1B23
:1002F00051E107C0AA1FBB1FA617B70710F0A61B26
:10030000B70B881F991F5A95A9F780959095BC0146
:08031000CD010895F894FFCF20
:00000001FF
